:0600000002106F02077AF6
:01000B0032C2
:0100130032BA
:01001B0032B2
:0100230032AA
:01002B0032A2
:0D106F00758107121012E582600302003344
:07107C00753000E4F534F5C6
:0510830033753F00750C
:06108800400075410075F7
:05108E004401754E0055
:0310930002003325
:0500330012088A80FEA6
:070038007535FF7536FF75F9
:07003F00310090FF81E4F0A5
:010046002297
:0E00470090FF48E0FA53027F90FF48EAF01263
:02005500003871
:010057002286
:0E00580090FF48E0FA43028090FF48EAF01261
:02006600003860
:010068002275
:07006900E4F5367535017A5C
:0C0070003F7B007C008A828B838CF012A6
:02007C00054835
:01007E00225F
:0E007F0090FF82E0FA43020890FF82EAF090C0
:08008D00FF02E0F53F1200380C
:010095002248
:0C00960090FF02E0F54290FF03E0F5430C
:0300A20012003811
:0100A5002238
:0700A600E4F5367535017A1F
:0C00AD00437B007C008A828B838CF01265
:0200B9000548F8
:0100BB002222
:0E00BC0090FF82E0FA43020890FF82EAF09083
:0800CA00FF04E0F540120038CC
:0100D200220B
:0700D300E4F5367535017AF2
:0C00DA00407B007C008A828B838CF0123B
:0200E6000548CB
:0100E80022F5
:0900E90090FF02E0F5441200381A
:0100F20022EB
:0700F300E4F5367535017AD2
:0C00FA00447B007C008A828B838CF01217
:020106000548AA
:0101080022D4
:0E01090090FF02E0FA7B00C3EA9480EB9400C2
:02011700501C7A
:0E0119007AFF7BFF90FF02E0FC8A828B83F06E
:0A01270090FF02E0F532753103127B
:04013100003880030F
:0301350012030AA8
:0101380022A4
:0E0139007AFC7BFF90FFFCE0FC4304088A8206
:0D0147008B83ECF043340290FF82E0FA431A
:0A015400020890FF82EAF012003862
:01015E00227E
:0E015F007AFC7BFF90FFFCE0FC5304F78A82E1
:0D016D008B83ECF05334FD90FF82E0FA43E9
:0A017A00020890FF82EAF01200383C
:010184002258
:06018500E4F538753701B6
:01018B002251
:0C018C00754F0075500190FF48E0FA30FC
:02019800E70579
:05019A00E4F550F54FF3
:07019F00E4F5367535027A24
:0C01A6004F7B007C008A828B838CF0125F
:0201B2000548FE
:0101B4002228
:0701B500E4F5367535027A0E
:0C01BC00337B007C008A828B838CF01265
:0201C8000548E8
:0101CA002212
:0C01CB00E4F552F55190FF82E0FA430287
:0C01D7000890FF82EAF0E4F5367535026E
:0D01E3007A517B007C008A828B838CF012A5
:0201F0000548C0
:0101F20022EA
:0B01F30090FF83E4F0E4F53675353F23
:0101FE0022DE
:0201FF007A0084
:03020100BA200020
:02020400501692
:0E020600EA2480FBE434FEFCEA900E2193FD16
:080214008B828C83F00A80E567
:0D021C0090FE877480F090FF83E4F0E4F51D
:0C022900367535207A807BFE7C018A82CD
:070235008B838CF0120548D9
:01023C00229F
:02023D007A0045
:03023F00BA1200F0
:02024200501852
:0E024400EA2480FBE434FEFC74122A900E21A2
:0A02520093FD8B828C83F00A80E399
:0C025C0090FF83E4F0E4F5367535097A74
:0E026800807BFE7C018A828B838CF01205481D
:010276002265
:020277007A000B
:03027900BA1200B6
:02027C0050161A
:0E027E00EA2480FBE434FEFCEA900E4193FD7E
:08028C008B828C83F00A80E5EF
:0D02940090FE8474FFF090FE887451F0908D
:0E02A100FE897404F090FE8A7410F090FE8BBB
:0E02AF007432F090FE8CE4F090FE8D7401F03D
:0E02BD0090FE8EE4F090FE8FE4F090FE9074C0
:0C02CB0001F090FF83E4F0E4F536753597
:0E02D700127A807BFE7C018A828B838CF0126F
:0502E500054875300121
:0102EA0022F1
:0C02EB0090FF83E4F0E4F5367535127ADC
:0E02F700807BFE7C018A828B838CF01205488E
:0103050022D5
:0303060012030AD5
:0103090022D1
:0E030A0090FF80E0FA43020890FF80EAF09036
:0C031800FF82E0FA43020890FF82EAF046
:0103240022B6
:0C03250090FFFFE4F07535FF7536FF75A2
:0703310037FF7538FFE4F50A
:0403380031F53BF56B
:05033C003AF539E4F57B
:040341003EF53DF553
:050345003C753F00754E
:0D034A00400090FF807484F090FF82748466
:0E035700F090FF817480F090FF837480F0902E
:0E036500FF48E4F090FF487484F090FF497464
:0E037300C0F090FF4A7480F090FF4F7440F08D
:0E03810090FF4A7480F090FF08E4F090FF08AF
:0E038F00E0FA43028490FF08EAF090FF097440
:0E039D00B0F090FF0AE4F090FF0D74B8F090FD
:0D03AB00FF0EE4F090FF0F7440F0E4F54801
:0603B800F547754C0075CD
:0D03BE004D0090FFFD74E5F07AF77BFF9095
:0E03CB00FFF7E0FC4304958A828B83ECF0750B
:0603D9004943754A4D7511
:0203DF004B00D1
:0103E10022F9
:0E03E200C2AF90FFFCE4F090FF9074E0F0D208
:0C03F000AFD2A812032590FFFC7480F02F
:0103FC0022DE
:0803FD0085823C85833D85F0FB
:0D0405003E90FF07E0FA7B008A037A00902A
:0D041200FF06E0FC7D00EC4AF537ED4BF5F0
:09041F003875310290FF83E4F00E
:0104280022B1
:0E04290090FF83E0FA53027F8A037C00C3E554
:08043700379BE5389C500302DD
:02043F00049E19
:020441007D003C
:05044300C3ED9A5026F4
:05044800AE3CAF3DA831
:05044D003E053CE4B592
:040452003C02053D26
:0E045600ED24F0F582E434FEF583E0F98E82A9
:0A0464008F8388F01210160D80D56A
:07046E00C3E5379BF537E5FC
:07047500389CF538C3E49543
:06047C0037E49538500A38
:0A04820090FF83E4F0753102802240
:0E048C0090FF82E0FA43020890FF82EAF075CA
:04049A00310080109D
:0E049E0090FF82E0FA43020890FF82EAF075B8
:0204AC0031001D
:0104AE00222B
:0B04AF00E535B4FF08E536B4FF03029A
:0204BA000544F7
:0A04BC00C374089535E4953650131B
:0904C6007A08E53524F8F535E566
:0604CF003634FFF536751E
:0404D5003101803839
:0B04D900C3E5359408E5369400500D93
:0604E400AA357535FF7515
:0704EA0036FF753100802090
:0B04F1007A08E545B40104E54660020E
:0204FC00800A74
:0604FE00E4F536F535754A
:040504003101800938
:070508007535FF7536FF7524
:02050F003100B9
:020511007B006D
:05051300C3EB9A502526
:0C051800EB24F8FCE434FEFD85398285FC
:060524003A83853BF0055F
:06052A0039E4B5390205B9
:010530003A90
:0C053100121047FE8C828D83F00B80D6E8
:07053D0090FF81EAF080034A
:030544007531000E
:010547002291
:0805480085823985833A85F0B4
:0D0550003B90FF07E0FA7B008A037A0090E1
:0E055D00FF06E0FC7D00EC4202ED4203C3E528
:07056B00359AE5369B400BB9
:060572008A358B36E4F52A
:0505780046F545800678
:06057D00E4F5467545019E
:030583001204AFB0
:010586002252
:060587007A537B0E7C029A
:06058D007D007E807F006E
:03059300BF08009E
:05059600E433F86038B9
:0E059B00E42FF58274FF3400F583E0F9EF2AB7
:0D05A900F582E43BF5838CF0121047F5530A
:0505B6008954E554B575
:0605BB00530474018001ED
:0105C100E455
:0405C200F555600388
:0305C600EE4DFDFA
:0A05C900EEC313F556AE560F80C0C6
:0E05D300EF2AF582E43BF5838CF0121047FF0F
:0805E1005205EDB50702800A86
:0A05E900740B2AFAE43BFB02058DB7
:0D05F30090FFFEE0FD3395E0FEED30E002EC
:02060000802157
:0E06020074092AF582E43BF5838CF012104750
:0B061000FAA3121047FB7423C0E07433
:08061B0006C0E0C002C003228A
:0106230022B4
:0A06240090FF81E4F0E531B4020517
:05062E00120429800DFB
:0D06330090FF82E0FA43020890FF82EAF097
:010640002297
:0A06410090FF83E4F0E531B40105F9
:05064B001204AF800D58
:0D06500090FF80E0FA43020890FF80EAF07E
:01065D00227A
:0A065E0090FF4A7480F0E54C600242
:020668008033DD
:0D066A0090FD81E0F54C90FF0AE0FA53028C
:030677007F7B0086
:05067A00C3EB9A5017CC
:0C067F00E54D2480F8EB2480F582E43483
:0B068B00FDF583E0FCF6054D0B80E45C
:0706960090FF0AE4F0802C44
:0B069D0090FF0AE0FB747F5BFA7B001B
:0506A800C3EB9A50179E
:0C06AD00E54D2480F8EB2480F582E43455
:0B06B900FDF583E0FCF6054D0B80E42E
:0506C40090FF0AE4F0C4
:0706C900C3E54D954C500202
:0206D000805C4C
:0706D200754C00754D007826
:0606D900808602BA010058
:0206DF00404D8C
:0606E100C374089A4047B3
:0906E7001AEA25E02A9006F073DE
:0706F00002070802070D02DA
:0606F700071202071702C2
:0606FD00071C02072102A8
:05070300072602072B90
:05070800120F508021DA
:05070D00120F5D801CCD
:05071200120F878017A3
:05071700120FBF80126B
:05071C0012100E800D1B
:0507210012100F80081A
:05072600121010800319
:03072B0012101198
:01072E0022A8
:01072F0022A7
:0D07300090FF817480F090FF837480F09042
:0E073D00FFFE7404F090FF00E0FA530280BA51
:02074B00801418
:0E074D007AFC7BFF90FFFCE0FC4304018A82F3
:06075B008B83ECF080121C
:0E0761007AFC7BFF90FFFCE0FC5304FE8A82D2
:04076F008B83ECF09C
:060773007531001205873C
:01077900225D
:0E077A00C0E0C0F0C082C083C002C003C00453
:0E078800C005C006C007C000C001C0D075D0BB
:0E07960000C2AF90FF92E0FA8A03BB1202800D
:0107A4005301
:0707A5008A03BB220280570A
:0707AC008A03BB30028058F4
:0807B3008A03BB320302081C9B
:0807BB008A03BB380302083F6A
:0807C3008A03BB3A030208524D
:0807CB008A03BB3C0302082C69
:0707D3008A03BB44028013FE
:0507DA00BA4602800395
:0307DF00020865A8
:0B07E20090FF92E4F012062402086D64
:0B07ED0090FF92E4F012064102086D3C
:0B07F80090FF92E4F012065E02086D14
:0808030090FF92E4F002086D81
:0E080B0090FF92E4F090FFFE7401F0120730AF
:0308190002086D65
:0E081C0090FF92E4F090FFFE7404F01207309B
:02082A0080410B
:0E082C007582927583FFE4F090FFFE7480F0F9
:05083A00120325802ED1
:0E083F007582927583FFE4F090FFFE7420F046
:05084D00754100801B55
:0E0852007582927583FFE4F090FFFE7440F013
:05086000754101800854
:080865007582927583FFE4F037
:02086D00D2AF08
:0E086F00D0D0D001D000D007D006D005D004E4
:0D087D00D003D002D083D082D0F0D0E03282
:0E088A0090FF94E4F090FF95E4F090FF9674D8
:0E089800FFF090FF977480F075B0FF75A0FF21
:0E08A6007590FF53A8F5D2B21203E27580FFE1
:0308B4007590FF3D
:0D08B700C283D282D281D294D293D292E534
:0D08C40057F4FA6402C0E0740230E702F459
:0108D1000422
:0808D200F5F0EA30E702F4043E
:0E08DA0084D0E020D20930E706C3E495F0F5A3
:0108E800F01F
:0608E900E5F0C36001B35D
:0D08EF009280E557A2E713FAF4FB6402C003
:0808FC00E0740230E702F4048D
:08090400F5F0EB30E702F4040A
:0E090C0084D0E020D20930E706C3E495F0F570
:01091A00F0EC
:06091B00E5F0C36001B32A
:0E0921009296EAA2E713FAF4FB6402C0E074B7
:06092F000230E702F404AF
:08093500F5F0EB30E702F404D9
:0E093D0084D0E020D20930E706C3E495F0F53F
:01094B00F0BB
:06094C00E5F0C36001B3F9
:0E0952009295EAA2E713FAF4FB6402C0E07487
:060960000230E702F4047E
:08096600F5F0EB30E702F404A8
:0E096E0084D0E020D20930E706C3E495F0F50E
:01097C00F08A
:06097D00E5F0C36001B3C8
:0609830092977B007C004E
:0E098900C3EB94E8EC64809483E433FD6007D4
:070997000BBB00EE0C80EB2E
:0D099E00D283C282D281D294D293D292E54C
:0D09AB0058F4FB6402C0E0740230E702F46F
:0109B800043A
:0809B900F5F0EB30E702F40455
:0E09C10084D0E020D20930E706C3E495F0F5BB
:0109CF00F037
:0609D000E5F0C36001B375
:0D09D6009280E558A2E713FAF4FB6402C01A
:0809E300E0740230E702F404A5
:0809EB00F5F0EB30E702F40423
:0E09F30084D0E020D20930E706C3E495F0F589
:010A0100F004
:060A0200E5F0C36001B342
:0E0A08009296EAA2E713FAF4FB6402C0E074CF
:060A16000230E702F404C7
:080A1C00F5F0EB30E702F404F1
:0E0A240084D0E020D20930E706C3E495F0F557
:010A3200F0D3
:060A3300E5F0C36001B311
:0E0A39009295EAA2E713FAF4FB6402C0E0749F
:060A47000230E702F40496
:080A4D00F5F0EB30E702F404C0
:0E0A550084D0E020D20930E706C3E495F0F526
:010A6300F0A2
:060A6400E5F0C36001B3E0
:060A6A0092977B007C0066
:0E0A7000C3EB94E8EC64809483E433FD6007EC
:070A7E000BBB00EE0C80EB46
:0D0A8500D283D282C281D294D293D292E564
:0D0A920059F4FB6402C0E0740230E702F486
:010A9F000452
:080AA000F5F0EB30E702F4046D
:0E0AA80084D0E020D20930E706C3E495F0F5D3
:010AB600F04F
:060AB700E5F0C36001B38D
:0D0ABD009280E559A2E713FAF4FB6402C031
:080ACA00E0740230E702F404BD
:080AD200F5F0EB30E702F4043B
:0E0ADA0084D0E020D20930E706C3E495F0F5A1
:010AE800F01D
:060AE900E5F0C36001B35B
:0E0AEF009296EAA2E713FAF4FB6402C0E074E8
:060AFD000230E702F404E0
:080B0300F5F0EB30E702F40409
:0E0B0B0084D0E020D20930E706C3E495F0F56F
:010B1900F0EB
:060B1A00E5F0C36001B329
:0E0B20009295EAA2E713FAF4FB6402C0E074B7
:060B2E000230E702F404AE
:080B3400F5F0EB30E702F404D8
:0E0B3C0084D0E020D20930E706C3E495F0F53E
:010B4A00F0BA
:060B4B00E5F0C36001B3F8
:060B510092977B007C007E
:0E0B5700C3EB94E8EC64809483E433FD600704
:070B65000BBB00EE0C80EB5E
:0D0B6C00D283D282D281C294D293D292E57C
:0D0B79005AF4FB6402C0E0740230E702F49D
:010B8600046A
:080B8700F5F0EB30E702F40485
:0E0B8F0084D0E020D20930E706C3E495F0F5EB
:010B9D00F067
:060B9E00E5F0C36001B3A5
:0D0BA4009280E55AA2E713FAF4FB6402C048
:080BB100E0740230E702F404D5
:080BB900F5F0EB30E702F40453
:0E0BC10084D0E020D20930E706C3E495F0F5B9
:010BCF00F035
:060BD000E5F0C36001B373
:0E0BD6009296EAA2E713FAF4FB6402C0E07400
:060BE4000230E702F404F8
:080BEA00F5F0EB30E702F40422
:0E0BF20084D0E020D20930E706C3E495F0F588
:010C0000F003
:060C0100E5F0C36001B341
:0E0C07009295EAA2E713FAF4FB6402C0E074CF
:060C15000230E702F404C6
:080C1B00F5F0EB30E702F404F0
:0E0C230084D0E020D20930E706C3E495F0F556
:010C3100F0D2
:060C3200E5F0C36001B310
:060C380092977B007C0096
:0E0C3E00C3EB94E8EC64809483E433FD60071C
:070C4C000BBB00EE0C80EB76
:0D0C5300D283D282D281D294C293D292E594
:0D0C60005BF4FB6402C0E0740230E702F4B4
:010C6D000482
:080C6E00F5F0EB30E702F4049D
:0E0C760084D0E020D20930E706C3E495F0F503
:010C8400F07F
:060C8500E5F0C36001B3BD
:0D0C8B009280E55BA2E713FAF4FB6402C05F
:080C9800E0740230E702F404ED
:080CA000F5F0EB30E702F4046B
:0E0CA80084D0E020D20930E706C3E495F0F5D1
:010CB600F04D
:060CB700E5F0C36001B38B
:0E0CBD009296EAA2E713FAF4FB6402C0E07418
:060CCB000230E702F40410
:080CD100F5F0EB30E702F4043A
:0E0CD90084D0E020D20930E706C3E495F0F5A0
:010CE700F01C
:060CE800E5F0C36001B35A
:0E0CEE009295EAA2E713FAF4FB6402C0E074E8
:060CFC000230E702F404DF
:080D0200F5F0EB30E702F40408
:0E0D0A0084D0E020D20930E706C3E495F0F56E
:010D1800F0EA
:060D1900E5F0C36001B328
:060D1F0092977B007C00AE
:0E0D2500C3EB94E8EC64809483E433FD600734
:070D33000BBB00EE0C80EB8E
:0D0D3A00D283D282D281D294D293C292E5AC
:0D0D47005CF4FB6402C0E0740230E702F4CB
:010D5400049A
:080D5500F5F0EB30E702F404B5
:0E0D5D0084D0E020D20930E706C3E495F0F51B
:010D6B00F097
:060D6C00E5F0C36001B3D5
:0D0D72009280E55CA2E713FAF4FB6402C076
:080D7F00E0740230E702F40405
:080D8700F5F0EB30E702F40483
:0E0D8F0084D0E020D20930E706C3E495F0F5E9
:010D9D00F065
:060D9E00E5F0C36001B3A3
:0E0DA4009296EAA2E713FAF4FB6402C0E07430
:060DB2000230E702F40428
:080DB800F5F0EB30E702F40452
:0E0DC00084D0E020D20930E706C3E495F0F5B8
:010DCE00F034
:060DCF00E5F0C36001B372
:0E0DD5009295EAA2E713F4FA6402C0E07402F9
:050DE30030E702F404FA
:080DE800F5F0EA30E702F40423
:0E0DF00084D0E020D20930E706C3E495F0F588
:010DFE00F004
:060DFF00E5F0C36001B342
:060E050092977A007B00C9
:0E0E0B00C3EA94E8EB6480948340030208B7C6
:070E19000ABA00EE0B80EBAA
:010E200022AF
:0E0E210009022000010100A0320904000002B5
:0E0E2F00FF01010107058102400000070501D7
:040E3D00024000006F
:0E0E41001201100100000008FFFFFFFF00017A
:040E4F000102030198
:0C0E530002030000FF000000F74700024F
:0C0E5F00010000FF000000F758008008B0
:0C0E6B00000000000100FF69000009FF0A
:0C0E77000000000000DF7F008006FF018B
:0C0E8300FFFFFFFFD077028006FF02FF98
:0C0E8F00FFFFFFD0FF018106FF21FFFFE5
:0C0E9B00FFFFD03D028006FF03FFFFFFB9
:0C0EA700FFD0EB028106FF22FFFFFFFFDF
:0C0EB300D0F3012109FFFFFFFFFFFFC08B
:0B0EBF008501210AFFFFFFFF0000C3B8
:0B0ECA009600210BFFFFFFFF0000C39C
:0B0ED500E900A102FFFFFFFF0100C3C6
:0B0EE000A600A103FFFFFFFF0100C3FD
:0B0EEB00F300810A0000FFFF0100F38C
:0B0EF600D3008000000000000200FF9D
:0B0F0100B50181000000FF000200F7B6
:0B0F0C00CB0182000000FF000200F794
:0B0F17008C010005FF0000000000DF5F
:0B0F220009010003010000000000FFB7
:0B0F2D0039010001010000000000FF7E
:0B0F38005F01010BFF00FF000000D76D
:0B0F4300BC00FFFFFFFFFFFFFFFF00EF
:020F4E00060398
:0C0F500090FE00741BF090FF4A7401F04A
:010F5C002272
:0D0F5D0090FE00744EF090FE017449F0907B
:0E0F6A00FE027458F090FE037449F090FE04ED
:0E0F78007445F090FE05E4F090FF4A7406F018
:010F86002248
:040F87007A007B0071
:0B0F8B00C3EA9408EB648094805022BD
:0E0F9600EA2400FCEB34FEFDEA2480F582EB39
:0E0FA40034FDF583E004FE8C828D83EEF00AAE
:060FB200BA00D60B80D34B
:060FB80090FF4A7408F0EE
:010FBE002210
:040FBF007A007B0039
:0B0FC300C3EA9406EB64809480502B7E
:0D0FCE00EA2457F874022AFCE43BFDEC24F1
:0E0FDB0080F582ED34FDF583E0FCF6EA24009B
:0E0FE900F582EB34FEF583ECF00ABA00010B42
:020FF70080CAAE
:0E0FF900AA8090FE06EAF0AA9090FE07EAF0A9
:0610070090FF4A7408F09E
:01100D0022C0
:01100E0022BF
:01100F0022BE
:0110100022BD
:0110110022BC
:03101200758200E4
:0110150022B8
:0E101600C8C0E0C8C0E0E5F0600D1460111421
:091024006013146014D0E0801583
:07102D00D0E0A882F6800E5E
:05103400D0E0F080098E
:04103900D0E080057E
:05103D00D0E0A882F2E2
:04104200C8D0E0C86A
:011046002287
:0E104700C8C0E0E5F0600D14600F14600F14D7
:06105500601074FF800F23
:05105B00A882E6800AF6
:03106000E0800726
:04106300E49380038F
:03106700A882E27A
:04106A00F8D0E0C812
:01106E00225F
:00000001FF
