:06000000020AB802077AB3
:01000B0032C2
:0100130032BA
:01001B0032B2
:0100230032AA
:01002B0032A2
:0D0AB800758107120A5BE5826003020033BE
:070AC500753000E4F534F583
:050ACC0033753F0075C9
:060AD100400075410075B4
:050AD7004401754E0012
:030ADC00020033E2
:0500330012088A80FEA6
:070038007535FF7536FF75F9
:07003F00310090FF81E4F0A5
:010046002297
:0E00470090FF48E0FA53027F90FF48EAF01263
:02005500003871
:010057002286
:0E00580090FF48E0FA43028090FF48EAF01261
:02006600003860
:010068002275
:07006900E4F5367535017A5C
:0C0070003F7B007C008A828B838CF012A6
:02007C00054835
:01007E00225F
:0E007F0090FF82E0FA43020890FF82EAF090C0
:08008D00FF02E0F53F1200380C
:010095002248
:0C00960090FF02E0F54290FF03E0F5430C
:0300A20012003811
:0100A5002238
:0700A600E4F5367535017A1F
:0C00AD00437B007C008A828B838CF01265
:0200B9000548F8
:0100BB002222
:0E00BC0090FF82E0FA43020890FF82EAF09083
:0800CA00FF04E0F540120038CC
:0100D200220B
:0700D300E4F5367535017AF2
:0C00DA00407B007C008A828B838CF0123B
:0200E6000548CB
:0100E80022F5
:0900E90090FF02E0F5441200381A
:0100F20022EB
:0700F300E4F5367535017AD2
:0C00FA00447B007C008A828B838CF01217
:020106000548AA
:0101080022D4
:0E01090090FF02E0FA7B00C3EA9480EB9400C2
:02011700501C7A
:0E0119007AFF7BFF90FF02E0FC8A828B83F06E
:0A01270090FF02E0F532753103127B
:04013100003880030F
:0301350012030AA8
:0101380022A4
:0E0139007AFC7BFF90FFFCE0FC4304088A8206
:0D0147008B83ECF043340290FF82E0FA431A
:0A015400020890FF82EAF012003862
:01015E00227E
:0E015F007AFC7BFF90FFFCE0FC5304F78A82E1
:0D016D008B83ECF05334FD90FF82E0FA43E9
:0A017A00020890FF82EAF01200383C
:010184002258
:06018500E4F538753701B6
:01018B002251
:0C018C00754F0075500190FF48E0FA30FC
:02019800E70579
:05019A00E4F550F54FF3
:07019F00E4F5367535027A24
:0C01A6004F7B007C008A828B838CF0125F
:0201B2000548FE
:0101B4002228
:0701B500E4F5367535027A0E
:0C01BC00337B007C008A828B838CF01265
:0201C8000548E8
:0101CA002212
:0C01CB00E4F552F55190FF82E0FA430287
:0C01D7000890FF82EAF0E4F5367535026E
:0D01E3007A517B007C008A828B838CF012A5
:0201F0000548C0
:0101F20022EA
:0B01F30090FF83E4F0E4F53675353F23
:0101FE0022DE
:0201FF007A0084
:03020100BA200020
:02020400501692
:0E020600EA2480FBE434FEFCEA9008B293FD8B
:080214008B828C83F00A80E567
:0D021C0090FE877480F090FF83E4F0E4F51D
:0C022900367535207A807BFE7C018A82CD
:070235008B838CF0120548D9
:01023C00229F
:02023D007A0045
:03023F00BA1200F0
:02024200501852
:0E024400EA2480FBE434FEFC74122A9008B217
:0A02520093FD8B828C83F00A80E399
:0C025C0090FF83E4F0E4F5367535097A74
:0E026800807BFE7C018A828B838CF01205481D
:010276002265
:020277007A000B
:03027900BA1200B6
:02027C0050161A
:0E027E00EA2480FBE434FEFCEA9008D293FDF3
:08028C008B828C83F00A80E5EF
:0D02940090FE8474FFF090FE887451F0908D
:0E02A100FE897404F090FE8A7410F090FE8BBB
:0E02AF007432F090FE8CE4F090FE8D7401F03D
:0E02BD0090FE8EE4F090FE8FE4F090FE9074C0
:0C02CB0001F090FF83E4F0E4F536753597
:0E02D700127A807BFE7C018A828B838CF0126F
:0502E500054875300121
:0102EA0022F1
:0C02EB0090FF83E4F0E4F5367535127ADC
:0E02F700807BFE7C018A828B838CF01205488E
:0103050022D5
:0303060012030AD5
:0103090022D1
:0E030A0090FF80E0FA43020890FF80EAF09036
:0C031800FF82E0FA43020890FF82EAF046
:0103240022B6
:0C03250090FFFFE4F07535FF7536FF75A2
:0703310037FF7538FFE4F50A
:0403380031F53BF56B
:05033C003AF539E4F57B
:040341003EF53DF553
:050345003C753F00754E
:0D034A00400090FF807484F090FF82748466
:0E035700F090FF817480F090FF837480F0902E
:0E036500FF48E4F090FF487484F090FF497464
:0E037300C0F090FF4A7480F090FF4F7440F08D
:0E03810090FF4A7480F090FF08E4F090FF08AF
:0E038F00E0FA43028490FF08EAF090FF097440
:0E039D00B0F090FF0AE4F090FF0D74B8F090FD
:0D03AB00FF0EE4F090FF0F7440F0E4F54801
:0603B800F547754C0075CD
:0D03BE004D0090FFFD74E5F07AF77BFF9095
:0E03CB00FFF7E0FC4304958A828B83ECF0750B
:0603D9004943754A4D7511
:0203DF004B00D1
:0103E10022F9
:0E03E200C2AF90FFFCE4F090FF9074E0F0D208
:0C03F000AFD2A812032590FFFC7480F02F
:0103FC0022DE
:0803FD0085823C85833D85F0FB
:0D0405003E90FF07E0FA7B008A037A00902A
:0D041200FF06E0FC7D00EC4AF537ED4BF5F0
:09041F003875310290FF83E4F00E
:0104280022B1
:0E04290090FF83E0FA53027F8A037C00C3E554
:08043700379BE5389C500302DD
:02043F00049E19
:020441007D003C
:05044300C3ED9A5026F4
:05044800AE3CAF3DA831
:05044D003E053CE4B592
:040452003C02053D26
:0E045600ED24F0F582E434FEF583E0F98E82A9
:0A0464008F8388F0120A5F0D80D527
:07046E00C3E5379BF537E5FC
:07047500389CF538C3E49543
:06047C0037E49538500A38
:0A04820090FF83E4F0753102802240
:0E048C0090FF82E0FA43020890FF82EAF075CA
:04049A00310080109D
:0E049E0090FF82E0FA43020890FF82EAF075B8
:0204AC0031001D
:0104AE00222B
:0B04AF00E535B4FF08E536B4FF03029A
:0204BA000544F7
:0A04BC00C374089535E4953650131B
:0904C6007A08E53524F8F535E566
:0604CF003634FFF536751E
:0404D5003101803839
:0B04D900C3E5359408E5369400500D93
:0604E400AA357535FF7515
:0704EA0036FF753100802090
:0B04F1007A08E545B40104E54660020E
:0204FC00800A74
:0604FE00E4F536F535754A
:040504003101800938
:070508007535FF7536FF7524
:02050F003100B9
:020511007B006D
:05051300C3EB9A502526
:0C051800EB24F8FCE434FEFD85398285FC
:060524003A83853BF0055F
:06052A0039E4B5390205B9
:010530003A90
:0C053100120A90FE8C828D83F00B80D6A5
:07053D0090FF81EAF080034A
:030544007531000E
:010547002291
:0805480085823985833A85F0B4
:0D0550003B90FF07E0FA7B008A037A0090E1
:0E055D00FF06E0FC7D00EC4202ED4203C3E528
:07056B00359AE5369B400BB9
:060572008A358B36E4F52A
:0505780046F545800678
:06057D00E4F5467545019E
:030583001204AFB0
:010586002252
:060587007AE47B087C020F
:06058D007D007E807F006E
:03059300BF08009E
:05059600E433F86038B9
:0E059B00E42FF58274FF3400F583E0F9EF2AB7
:0D05A900F582E43BF5838CF0120A90F553C7
:0505B6008954E554B575
:0605BB00530474018001ED
:0105C100E455
:0405C200F555600388
:0305C600EE4DFDFA
:0A05C900EEC313F556AE560F80C0C6
:0E05D300EF2AF582E43BF5838CF0120A90FFCC
:0805E1005205EDB50702800A86
:0A05E900740B2AFAE43BFB02058DB7
:0D05F30090FFFEE0FD3395E0FEED30E002EC
:02060000802157
:0E06020074092AF582E43BF5838CF0120A900D
:0B061000FAA3120A90FB7423C0E074F0
:08061B0006C0E0C002C003228A
:0106230022B4
:0A06240090FF81E4F0E531B4020517
:05062E00120429800DFB
:0D06330090FF82E0FA43020890FF82EAF097
:010640002297
:0A06410090FF83E4F0E531B40105F9
:05064B001204AF800D58
:0D06500090FF80E0FA43020890FF80EAF07E
:01065D00227A
:0A065E0090FF4A7480F0E54C600242
:020668008033DD
:0D066A0090FD81E0F54C90FF0AE0FA53028C
:030677007F7B0086
:05067A00C3EB9A5017CC
:0C067F00E54D2480F8EB2480F582E43483
:0B068B00FDF583E0FCF6054D0B80E45C
:0706960090FF0AE4F0802C44
:0B069D0090FF0AE0FB747F5BFA7B001B
:0506A800C3EB9A50179E
:0C06AD00E54D2480F8EB2480F582E43455
:0B06B900FDF583E0FCF6054D0B80E42E
:0506C40090FF0AE4F0C4
:0706C900C3E54D954C500202
:0206D000805C4C
:0706D200754C00754D007826
:0606D900808602BA010058
:0206DF00404D8C
:0606E100C374089A4047B3
:0906E7001AEA25E02A9006F073DE
:0706F00002070802070D02DA
:0606F700071202071702C2
:0606FD00071C02072102A8
:05070300072602072B90
:050708001209E180214F
:05070D001209F4801C3C
:05071200120A07801728
:05071700120A2080120F
:05071C00120A33800DFC
:05072100120A468008E9
:05072600120A598003D6
:03072B00120A5A55
:01072E0022A8
:01072F0022A7
:0D07300090FF817480F090FF837480F09042
:0E073D00FFFE7404F090FF00E0FA530280BA51
:02074B00801418
:0E074D007AFC7BFF90FFFCE0FC4304018A82F3
:06075B008B83ECF080121C
:0E0761007AFC7BFF90FFFCE0FC5304FE8A82D2
:04076F008B83ECF09C
:060773007531001205873C
:01077900225D
:0E077A00C0E0C0F0C082C083C002C003C00453
:0E078800C005C006C007C000C001C0D075D0BB
:0E07960000C2AF90FF92E0FA8A03BB1202800D
:0107A4005301
:0707A5008A03BB220280570A
:0707AC008A03BB30028058F4
:0807B3008A03BB320302081C9B
:0807BB008A03BB380302083F6A
:0807C3008A03BB3A030208524D
:0807CB008A03BB3C0302082C69
:0707D3008A03BB44028013FE
:0507DA00BA4602800395
:0307DF00020865A8
:0B07E20090FF92E4F012062402086D64
:0B07ED0090FF92E4F012064102086D3C
:0B07F80090FF92E4F012065E02086D14
:0808030090FF92E4F002086D81
:0E080B0090FF92E4F090FFFE7401F0120730AF
:0308190002086D65
:0E081C0090FF92E4F090FFFE7404F01207309B
:02082A0080410B
:0E082C007582927583FFE4F090FFFE7480F0F9
:05083A00120325802ED1
:0E083F007582927583FFE4F090FFFE7420F046
:05084D00754100801B55
:0E0852007582927583FFE4F090FFFE7440F013
:05086000754101800854
:080865007582927583FFE4F037
:02086D00D2AF08
:0E086F00D0D0D001D000D007D006D005D004E4
:0D087D00D003D002D083D082D0F0D0E03282
:0E088A0090FF94E4F090FF95E4F090FF9674D8
:0E089800FFF090FF977480F075B0FF75A0FF21
:0B08A6007590FF53A8F5D2B21203E2D8
:0108B1002224
:0E08B20009022000010100A03209040000022A
:0E08C000FF010101070581024000000705014C
:0408CE0002400000E4
:0E08D2001201100100000008FFFFFFFF0001EF
:0408E000010203010D
:0C08E40002030000FF000000F7470002C4
:0C08F000010000FF000000F75800800825
:0C08FC00000000000100FF69000009FF7F
:0C0908000000000000DF7F008006FF01FF
:0C091400FFFFFFFFD077028006FF02FF0C
:0C092000FFFFFFD0FF018106FF21FFFF59
:0C092C00FFFFD03D028006FF03FFFFFF2D
:0C093800FFD0EB028106FF22FFFFFFFF53
:0C094400D0F3012109FFFFFFFFFFFFC0FF
:0B0950008501210AFFFFFFFF0000C32C
:0B095B009600210BFFFFFFFF0000C310
:0B096600E900A102FFFFFFFF0100C33A
:0B097100A600A103FFFFFFFF0100C371
:0B097C00F300810A0000FFFF0100F300
:0B098700D3008000000000000200FF11
:0B099200B50181000000FF000200F72B
:0B099D00CB0182000000FF000200F709
:0B09A8008C010005FF0000000000DFD4
:0B09B30009010003010000000000FF2C
:0B09BE0039010001010000000000FFF3
:0B09C9005F01010BFF00FF000000D7E2
:0B09D400BC00FFFFFFFFFFFFFFFF0064
:0209DF0006030D
:0D09E10075800075900090FE00741BF09072
:0509EE00FF4A7401F056
:0109F30022E1
:0D09F4007580FF7590FF90FE00741BF09061
:050A0100FF4A7401F042
:010A060022CD
:0D0A07007580FF7590FFC282C295C2969067
:0B0A1400FE00741BF090FF4A7401F01C
:010A1F0022B4
:0D0A20007580FF7590FF90FE00741BF09034
:050A2D00FF4A7401F016
:010A320022A1
:0D0A33007580FF7590D790FE00741BF09049
:050A4000FF4A7401F003
:010A4500228E
:0D0A46007580FE75903B90FE00741BF090D3
:050A5300FF4A7401F0F0
:010A5800227B
:010A5900227A
:010A5A002279
:030A5B00758200A1
:010A5E002275
:0E0A5F00C8C0E0C8C0E0E5F0600D14601114DE
:090A6D006013146014D0E0801540
:070A7600D0E0A882F6800E1B
:050A7D00D0E0F080094B
:040A8200D0E080053B
:050A8600D0E0A882F29F
:040A8B00C8D0E0C827
:010A8F002244
:0E0A9000C8C0E0E5F0600D14600F14600F1494
:060A9E00601074FF800FE0
:050AA400A882E6800AB3
:030AA900E08007E3
:040AAC00E49380034C
:030AB000A882E237
:040AB300F8D0E0C8CF
:010AB700221C
:00000001FF
